:020000040800F2
:1030000000000120818500083531000839310008B1
:103010003D31000841310008453100080000000042
:103020000000000000000000000000004D3100081A
:103030004931000800000000513100081D3300082C
:1030400055310008593100085D3100086131000830
:1030500065310008693100086D31000871310008E0
:1030600075310008793100087D310008000000004A
:103070000000000000000000000000000000000050
:103080000000000000000000553200089D310008DB
:10309000A1310008A5310008A9310008AD310008B0
:1030A000B1310008B5310008B9310008BD31000860
:1030B00061320008C1310008C5310008C93100087B
:1030C000CD310008D1310008D5310008D9310008D0
:1030D000DD31000849320008E13100083D320008C6
:1030E000E5310008E9310008ED310008F131000850
:1030F000F5310008F9310008FD31000801320008FF
:1031000005320008093200080D32000811320008AB
:103110001532000831320008193200081D3200084B
:103120002132000825320008293200082D3200081B
:043130005FF8000044
:103134007047C046FEE7C046FEE7C046FEE7C0460D
:10314400FEE7C0467047C0467047C0467047C04659
:103154007047C0467047C0467047C0467047C04677
:103164007047C0467047C0467047C0467047C04667
:103174007047C0467047C0467047C0467047C04657
:103184007047C0467047C0467047C0467047C04647
:103194007047C0467047C0467047C0467047C04637
:1031A4007047C0467047C0467047C0467047C04627
:1031B4007047C0467047C0467047C0467047C04617
:1031C4007047C0467047C0467047C0467047C04607
:1031D4007047C0467047C0467047C0467047C046F7
:1031E4007047C0467047C0467047C0467047C046E7
:1031F4007047C0467047C0467047C0467047C046D7
:103204007047C0467047C0467047C0467047C046C6
:103214007047C0467047C0467047C0467047C046B6
:103224007047C0467047C0467047C04600B581B07D
:1032340000F0EEF901B000BD00B581B000F0E2F994
:1032440001B000BD00B581B000F0E8F901B000BDE7
:1032540000B581B000F0CAF801B000BD00B54FF070
:10326400804081B0102104F0FBFE00284AD01021D8
:103274004FF0804004F000FF00F0B8F800214FF058
:10328400804004F07FFE204B4FF08040198889B2C3
:1032940004F082FE1D4B1B8813F0070F01D100F0D0
:1032A40099F81A4B1B8813F0030F01D100F0AAF808
:1032B400164B1B8813F01F0F07D100F0B5F902F06D
:1032C400B9F801F097F8124B9877104B1B889B05BF
:1032D4009B0D93B91020002101F036F9082000213C
:1032E40001F032F90B4B1B7813F0070F01D100F0FA
:1032F400A1F9084A137801331370044A138801337F
:103304009BB2138001B000BD2E010020F602002004
:103314001D090020F802002000B581B001F0F4FC82
:1033240001B000BD00B581B001F092FC012001F0B4
:1033340077FD012000F0B6F9002001F023FE022001
:1033440001F020FE012001F01DFE02F035F91E48B7
:103354001E490022835C8B540132182AFAD11C4B7B
:1033640008221A7000F07EFC0121072001F0ECF81D
:10337400322001F06FFD0021072001F0E5F8322032
:1033840001F068FD0121072001F0DEF8322001F090
:1033940061FD0021072001F0D7F8322001F05AFD29
:1033A4000121072001F0D0F8322001F053FD002163
:1033B400072001F0C9F8322001F04CFD002001F093
:1033C4002FFD00F0B5FCFEE70E0100201D090020D2
:1033D40078090020024A13780133DBB21370704776
:1033E4001C0900207047C0467047C04600B581B034
:1033F40001F07EFD01B000BD00B581B001F084FC98
:1034040001B000BD10B5724B82B000248DF80740A6
:103414001A784FF400510132D2B21A701A786D48FA
:1034240002F01F021A7003F005F901280CBF8DF891
:1034340007008DF807409DF80730DFF89CC1194656
:103444006648002B5DD18CF80030654B1F221A7042
:10345400644B19700378002B30D0634A1388013B06
:103464009BB21380138899B299B90378013BDBB2FC
:10347400037040F2092313805C4A13780BB1117076
:1034840001E001231370554B1B781A460BB9574BB7
:103494001A701F20002101F057F8504B544A197834
:1034A4000120A1FB02239B0803EB8303C91AC9B2C1
:1034B40088400121C0B201F047F806E01F20002136
:1034C40001F042F8002001F011F8484B1B784BB989
:1034D4008021484803F0C2F846484FF4807103F055
:1034E400BDF808E04348802103F0B8F841484FF4A0
:1034F400807103F0B5F83F484FF4007103F0AEF863
:1035040030E014230370384B40F209221A80304B08
:103514001A789CF800309A4204D33648802103F08C
:103524009DF803E03348802103F09AF8284B1A7879
:103534002B4B1B789A4205D32E484FF4807103F02D
:103544008DF804E02B484FF4807103F089F8204B88
:103554001A78244B1B789A42CDD226484FF4007136
:1035640003F07EF81A4B1A78234B1B789A4205D342
:1035740018484FF4807103F071F804E015484FF4D3
:10358400807103F06DF8124B1A781C4B1B789A4229
:1035940005D310484FF4006103F060F804E00D48CF
:1035A4004FF4006103F05CF8094B1A78144B1B7854
:1035B4009A4205D307484FF4805103F04FF804E0D2
:1035C40004484FF4805103F04BF802B010BDC046DC
:1035D4007F0900200008014079090020FA02002038
:1035E4007A0900207B090020FC020020FE02002052
:1035F400CDCCCCCC001001407C0900207D090020FA
:103604007E09002000B581B001F090FD01B000BD3D
:1036140000B581B001F0F2FC01B000BD00B581B08D
:1036240001F00AFD01B000BD00B581B002F030F92F
:1036340001B000BD00B581B001F0E4FB124A82F88C
:10364400320092F832306E2B0AD892F83230822B44
:1036540006D90E4A1378132B05D80133137002E0F0
:103664000A4B00221A70094B1B78142B0AD1FF2035
:1036740001F034FE162001F03DFE01F047FE08B9CA
:1036840001F054FE01B000BD1D090020FF0200201E
:10369400024B00221A70024B188870470A0300205C
:1036A4000803002000B5012881B00AD100F1804050
:1036B40000F5843000F57F700330082102F0D0FF5C
:1036C40003E00348082102F0C9FF01B000BDC04671
:1036D400000C014030B5264B4FF0000281B01A8037
:1036E40002241D4631E00020FFF7DCFF022001F038
:1036F400B1FB012001F046FC0120FFF7D3FF0A20B3
:1037040001F0A8FB0120212101F09CFD01202121D1
:1037140001F098FD40F2311001F09CFB0DE0012016
:1037240001F040FC0028FAD0012001F04BFC2128D4
:1037340003D14FF001032B8004E0012001F032FC9F
:103744000028ECD1631EDCB214B12B88002BCAD044
:10375400322001F07FFB0020FFF7A4FF022001F0DC
:1037640079FB0120FFF79EFF014B188801B030BDA3
:103774000C03002010B5394B1B78012B01D101201B
:103784006BE0374C2378052B0BD83648C3F1060180
:10379400C01800F0B1F8B0F1FF3F1EBF2378C31882
:1037A40023702F4B1C78012C30D90021DFF8B4C0D2
:1037B400601E0DE01CF801300CEB0102FF2B06D15A
:1037C400884204DD5378552B01D1F9B102E001316F
:1037D400A142EFDBA14204D1224B4A1E9B5CFF2B8A
:1037E40000D00A461F4B114603EB020C184604E0B6
:1037F4001CF8013C013100F8013C0130A1420CF1FC
:10380400010CF5DB164BC2EB04021A70144B1B7847
:10381400062B20D1134A1378FF2B17D15378552B3D
:1038240014D1D37890786FEA0303DBB298420DD1B8
:10383400537911796FEA0303DBB2994206D10A4B3B
:1038440000EB01221A80054B01221A70054A00235D
:103854001370034A1370014B187810BD0A0300203B
:1038640006030020000300200803002000B580B2F6
:1038740083B0C2B2000A8DF806004FF0FF336FEA3E
:1038840000008DF802308DF8042055236FEA0202FF
:103894008DF8070006210DF102008DF803308DF834
:1038A400052000F043F8062814BF0020012003B0CF
:1038B40000BDC04600B581B000F01CF801B000BDE9
:1038C40000B54FF4614181B000F03EF848B1064BB9
:1038D40000221A70054B4FF000011980044B01209F
:1038E4001A7001B000BDC0460A030020080300207E
:1038F400060300207047C04670B5064601200D46F9
:1039040001F050FB10B94FF0FF340CE0002401200B
:1039140001F048FB0028FAD0012001F053FB305598
:103924000134AC42F3DB204670BDC04670B5064698
:103934000D46002404E0315D012001F083FC0134D4
:10394400AC42F8DB002070BD00B5012081B04FF41B
:10395400614101F037F8012001B000BD70B5154B8D
:10396400154A1978535C13B3144B1C7802EB040307
:103974005B1813F8023C022B19D00120104E114D94
:1039840010E05A2913D8325C15F811308C46934252
:103994000DD84B1CD9B205EB4C03325C5B7801307B
:1039A400934204D3C3B2A342EBD3002000E0082027
:1039B40070BDC046830A0020B400002081090020A5
:1039C4008309002000000020F0B5002581B0464E98
:1039D400464F81E0464A13782B441A2B3AD005DC33
:1039E400182B1DD029DC042B74D10AE0512B53D0A1
:1039F40002DC1C2B6ED13DE0522B60D0532B69D1DD
:103A040064E03C4B3C4C1B7900200133B4FBF3F4E1
:103A1400214600F0D7FF0220214600F0D3FF59E0F1
:103A2400344C207E01F0FCF9237E012B01D101F0FE
:103A3400DFFA304B1A7E314B1AE02E4C0121607EA6
:103A440000F082FD607E00216FEA0000C0B200F049
:103A54007BFD3FE033782A4A03F01F03137032885A
:103A6400530903F01F033B70920A264B02F01F0216
:103A74001A702FE02449254A0B7803F01F031370B2
:103A84000988234A4B0903F01F031370890A214B49
:103A940001F01F0119701DE0164C94F8520001F05A
:103AA4001DFC01F033FC18B194F85230FE2B11D1F7
:103AB40094F8510001F01EFC01F038FC0AE00D4BB3
:103AC40093F8523033B901F077FD03E0124B1888B4
:103AD400FFF7CCFE6B1CDDB2104A1378013B9D420C
:103AE400FFF678AF01B0F0BD370900207A09002055
:103AF400830A00201D09002080841E00870B0020FB
:103B0400790900207B090020390900207C09002064
:103B14007D0900207E090020700900208109002011
:103B240030B52C4B81B01B78012B07D02A4B1B7866
:103B3400FE2B4CD0294B1B7C012B48D9284B2949FF
:103B440093F800C0254C284D40EA0C0CE0780B7823
:103B54004FF0FF32EA540133DBB20B700B780230C2
:103B6400EA540133DBB20B700A78E3786044AB5457
:103B74000132D2B20A700B780222EA540133DBB26A
:103B84000B700B786FEA000005F803C00133DBB259
:103B94000B700B78C0B2E8540133DBB2134A0B70DC
:103BA400137883B901231370114A12481378E95C1E
:103BB4000133DBB2137004F071FB0E4840F226614E
:103BC400012204F0FFFA094A1378002BFCD101B05A
:103BD40030BDC04682090020800900201D09002054
:103BE400840A002018090020160800201B09002060
:103BF4001909002000480040F0B5012481B0144F99
:103C0400144E154D1EE0154A1378013B2344D8B2D7
:103C14003B5C022B0BD12B5B1728335204D80130A9
:103C24008000194602F0DEF9631CDCB208E02B5D6B
:103C34001728335404D801308000295B02F0D2F9EC
:103C4400631CDCB2064A1378A342DCD801B0F0BD91
:103C5400B40000201D09002083090020830A0020ED
:103C64008109002030B52D49002008700B782C4DB7
:103C74002C4C2B700B784FF0FF32E2540133DBB243
:103C84000B700B7881B0E2540133DBB20B700B780C
:103C94009218E2540133DBB20B700B780422E25425
:103CA4000133DBB20B700B780322E2540133DBB235
:103CB4000B700B781822E2540133DBB20B700B78D3
:103CC400363AE0540133DBB20B700B7800F18040DC
:103CD400E2540133DBB20B7000F58630102102F0A0
:103CE400B3FCC0B900F1804000F58630202102F019
:103CF400B7FC0D48102102F0B1FC2B780B48E15CB5
:103D04000133DBB22B7004F0C9FA084840F2266193
:103D1400012204F057FA01B030BDC0461407002058
:103D24001507002012060020000C01400038014055
:103D3400F0B5DFF840466FF03703E3704FF4F84214
:103D4400DFF83436A2834FF47871002261831A704D
:103D5400DFF828361F211970DFF8243683B01A7073
:103D6400DFF820361A70DFF820361A70DFF81C36B8
:103D74001970FFF7AFFCA4F858000021DFF81026F3
:103D840000231370DFF80C46DFF80CE6944603E0DA
:103D94009CF80030642BF0D822789EF80030DFF8CD
:103DA400F4059A42F4D00378DFF8F025D25C0133AD
:103DB4009646DFF8EC25DBB2BEF1FF0F82F800E097
:103DC400037002D14B1CD9B2D8E70129D5D9DFF849
:103DD400A435DB789E4502D0BEF1FE0FCDD1DFF8CD
:103DE400B02500231370DFF8AC55DFF8AC459446DA
:103DF40003E09CF80030642BBFD82A782378DFF8DE
:103E040094059A42DFF88815F3D00378DFF88C25FF
:103E14000446D25C0133DBB20370931EDEB2DFF8DA
:103E2400843517461E7000230B70DFF86C0502E022
:103E34000B78642BA1D822780378DFF858C59A420E
:103E4400F6D09CF80030DFF854250020D15C013313
:103E5400DBB2DFF854258CF8003007EB0E03117049
:103E6400C918CDB2DFF82845E6461DE000232370CB
:103E740002E02378642B80D8DFF81C159EF800201C
:103E84000B789A42F5D09CF80020DFF81035DFF863
:103E94001C159B5C01320B540B5CD2B25B19DDB276
:103EA400431C8CF80020D8B28642DFDADFF8FC34F9
:103EB40000241A78DFF8F834DFF8B8641A7004E0E4
:103EC400022000F00BFF631CDCB273799C42F7D331
:103ED400FF2DDFF8D4140BD0DFF8B834DFF8B824A2
:103EE4001B7813700B78012B3FF447AF10203DE291
:103EF4000B78922B40F0B480DFF8B82400231370C1
:103F04001378DFF8B424022413704FF0FF0C00265A
:103F1400A2E0DFF89804DFF85C14025DCB789A42E3
:103F240040F09580CA78DFF878341A70DFF8783476
:103F340002221A70631CC25CDFF874341A70631EA8
:103F4400C35CBCF1FF0F437001D1042788E0DFF8A4
:103F540064E40021DFF83844704600E000214FF0AB
:103F64000003237003E02378642B3FF606AFDFF8E9
:103F740048341A789EF800309A42F4D00378DFF877
:103F84003C24D25C0133DBB2FF2A037002D14B1C08
:103F9400D9B2E4E70129E1D96245DFD1FC4BDFF86E
:103FA40014E41E709C4604E09CF80030642B3FF639
:103FB400E4AEDFF80444FF4822789EF80030F44968
:103FC4009A42F1D00378FD4A8446D25C0133DBB2D5
:103FD400023A0370D4B20E7003E00B78642B3FF600
:103FE400CCAEF54BF3481A789CF800309A42F4D0E2
:103FF4000378F24A0021D25C0133DBB20370DFF8AC
:1040040090E3844615E08EF8006004E09EF80030EA
:10401400642B3FF6B2AEE84B1A789CF800309A4213
:10402400F4D00378E54AD25C0133DBB203704B1C55
:10403400D9B28C42E7DA0024CE4D04E0022000F02D
:104044004DFE631CDCB26B799C42F7D30427D74B3B
:104054001B5D9C46E31CDCB2FB1E9C42FFF659AF81
:10406400D14B1D7805F17D03DBB2012B2AD8CF4A51
:1040740002215378A7F1030E18461646BD4C03F1EE
:10408400010C1DE0725CE3789A4216D10122DFF83C
:104094001CC305E01CF803300CF80230531CDAB2E0
:1040A40002EB01038242DBB2F4D9BF4B05F07F027D
:1040B4001A70BC4B421C1A7004E001EB0C03D9B219
:1040C4007145DFDBB84B1B78032B0CD1FFF746FCA3
:1040D4000446FFF725FD082C3FF44FAEFFF78CFD97
:1040E400FFF772FC49E6022B40F00681AC4B1B78CB
:1040F400FE2B3FF442AE9F4C237C002B3FF43DAE9D
:10410400AA49AB4A4B781278AD489B180092013B00
:10411400AC4A91F801E0DBB216780193E3780EF132
:10412400020E5FFA8EFE9B197344A74DDFB203782B
:104134004FF0FF34EC540133DBB2037003788D4944
:10414400EC540133DBB203700278CB789F49AB5453
:104154000132D2B202700378DFF874C205F803E0CA
:104164000133DBB203700378EE540133DBB2037026
:104174000B780CF803400133DBB20B700B780CF8AE
:1041840003400133DBB27B4C0B700A78E3780CF804
:1041940002300132D2B20A700B780CF803E001331A
:1041A400DBB20B700B780CF803600133DBB20B70DD
:1041B400009C064650E0572C06D1FFF7DBFA6D4908
:1041C400C0B281F8570005E0552C03D1FFF760FA1F
:1041D400804A1080804B01991A5D8C422CBF0023C9
:1041E4000123022A14BF002303F001037748DFF8F8
:1041F400E0C103B35F4A3378115BCAB2EA540133B6
:10420400DBB233700378090A0CF803200133DBB204
:1042140003703378D219E9540133DBB23370037875
:10422400D2B20CF803100133DBB203705218631CD2
:10423400D7B2DCB20EE04F490B5D3278AB54013299
:10424400D2B2327002780CF802300132D2B2DB19E9
:104254000270DFB2631CDCB2019A9442ABD9584AB3
:104264006FEA07011378DFF860C1C9B20CF80310D4
:104274000133DBB2554813700378554AD1540133E6
:10428400DBB2564A037013788BB901231370544A76
:10429400544813781CF803100133DBB2137003F095
:1042A400FDFF504840F22661012203F08BFF4E4887
:1042B400102102F0C9F9D0B900F1804000F5863030
:1042C400202102F0CDF94848102102F0C7F94748EF
:1042D4003F4A0378D15C0133DBB20370444803F0F6
:1042E400DDFF434840F22661012203F06BFF3B4AA5
:1042F4001378002BFCD140E50D2B20D12B4A937869
:10430400F02B7FF43AADD378552B7FF436AD137987
:104314000F2B7FF432AD5379AA2B7FF42EAD214BB2
:104324001B78062B7FF429AD214B187859283FF6CA
:1043340024AD01305178800001F054FE1DE5012BBD
:1043440009D1174B1B78FE2B03D10A4BD87800F008
:1043540081FD00200AE0062B01D0072B05D10020A7
:10436400FFF7DEFB02F028FB07E54020FFF7D8FB50
:1043740003E5C0461D090020790900207A090020C0
:104384007B0900207C0900207D0900207E09002093
:104394001C0900200F0500200E0500200E0300203C
:1043A400800900208109002082090020830900205F
:1043B400830A0020130700201207002012050020A2
:1043C40018090020840A0020160800201407002081
:1043D4001206002072090020B40000201B090020EE
:1043E4001909002000480040000C01401507002076
:1043F4000038014010B54FF48041094802F01AF921
:104404004FF40041441E18BF0124054802F012F97C
:1044140001281CBF44F00203DCB2204610BDC04694
:104424000008014070B50B4C8021204602F00CF9C5
:104434004FF480710646204602F006F94FF40071ED
:104444000546204602F000F9800040EA450030436A
:10445400C0B270BD0010014000B5012881B009D17F
:1044640000F1804000F5863000F57F7003304FF492
:10447400004132E0022809D100F1804000F5843087
:1044840000F57F7002304FF4805126E0042807D1F4
:1044940000F1804000F5863000F57F7040211CE07B
:1044A400082808D100F1804000F5863000F57E70C0
:1044B4004FF4005111E0102808D100F1804000F5BC
:1044C400863000F57C704FF4804106E0402801D02E
:1044D400002007E004484FF4807102F0B5F8013879
:1044E40018BF012001B000BD0008014010F0010F09
:1044F40010B5044604D01348802102F0B1F803E05B
:104504001048802102F0AAF814F0020F05D00D48DB
:104514004FF4807102F0A4F804E00A484FF480716B
:1045240002F09CF814F0040F05D006484FF4007113
:1045340002F096F804E003484FF4007102F08EF89C
:1045440010BDC04600100140012910B500F0010360
:1045540004462DD123B12D484FF4004102F080F8D8
:1045640014F0020F04D02A484FF4805102F078F876
:1045740014F0040F03D02548402102F071F814F020
:10458400080F04D021484FF4005102F069F814F0E8
:10459400100F04D01D484FF4804102F061F814F06C
:1045A400400F32D01B484FF4807102F059F82CE0D0
:1045B40023B116484FF4004102F050F814F0020FF2
:1045C40004D013484FF4805102F048F814F0040F5B
:1045D40003D00E48402102F041F814F0080F04D033
:1045E4000A484FF4005102F039F814F0100F04D0C7
:1045F40006484FF4804102F031F814F0400F04D023
:1046040004484FF4807102F029F810BD00100140F5
:10461400000C01400008014008B9064B08E00128DD
:1046240008BF054B04D0022801D0002001E0034B51
:104634001868704730010020340100203801002040
:1046440070B54FF4405182B04FF0006002F0AAF907
:1046540001AD4FF4C06002F007F9012400262523C0
:1046640028468DF804308DF805608DF806408DF8E5
:10467400074002F003F935238DF80430284602235D
:104684008DF806308DF805608DF8074002F0F6F8D5
:1046940027238DF80430284603238DF806308DF83F
:1046A40005608DF8074002F0E9F81C2328468DF8D0
:1046B40004308DF805408DF806608DF8074002F04F
:1046C400DDF802B070BDC046F0B583B001AC5F4DFB
:1046D400204601F0A7FF4FF4C8530326ADF8043079
:1046E40028464FF0100321468DF807308DF80660F8
:1046F40001F044FF4FF40053ADF80430284628235A
:1047040021468DF8073001F039FF4FF48063ADF88E
:10471400043028464FF0040321468DF8073001F099
:104724002DFF4FF0FF03ADF8043028464FF000038F
:10473400214618278DF8073001F020FF4FF400734D
:1047440028462146ADF804308DF806608DF80770D0
:1047540001F014FF4CF20003ADF80430284648235E
:10476400214605F580658DF8073001F007FF41F219
:104774003C13ADF8043028464FF0100321468DF861
:1047840007308DF8066001F0F9FE4FF40863ADF8C8
:10479400043028464FF0040321468DF8073001F019
:1047A400EDFE4EF2406328462146ADF804308DF804
:1047B40006608DF8077001F0E1FE4FF00303ADF8D9
:1047C400043028464FF00003214605F580658DF836
:1047D400073001F0D3FE4EF6C073ADF8043028461E
:1047E4004FF0100321468DF807308DF8066001F074
:1047F400C5FE4FF4805328462146ADF804308DF8A9
:1048040006608DF8077001F0B9FE4FF03F03ADF874
:10481400043028464FF0000321468DF8073001F09C
:10482400ADFE4FF0040321460948ADF804308DF87D
:10483400073001F0A3FE0420012101F039FF0548EF
:10484400012101F035FF03B0F0BDC046000801406E
:10485400001401400004300010B51E4C86B0204600
:104864004FF4006101F0FAFE20464FF4806101F03C
:10487400F5FE4FF00003ADF806304FF48273ADF847
:1048840008304FF00003ADF80A304FF00203ADF8E2
:104894000C304FF00103ADF80E304FF40073ADF857
:1048A40010304FF00803ADF81230A4F558444FF01F
:1048B4000003ADF8143020464FF007030DF1060154
:1048C400ADF8163002F0A2FB2046012102F0DCFB19
:1048D40006B010BD0010014010B586B001AC2046F2
:1048E40001F0B0F9012100224FF460238DF8091082
:1048F4008DF814103148214601928DF80820039355
:10490400049201F07BF92E48214601F077F9072340
:104914002A480A21012201F0F9F928484FF40871C4
:10492400002201F0ADF9072325480421012201F0FA
:10493400EDF9002222484FF4087101F0A1F91F4853
:10494400012101F089F91E48012101F085F91B4874
:1049540001F0A2F9194801F0A5F90028FAD100F1F3
:10496400804000F5943001F097F9154801F09AF968
:104974000028FAD100F1804000F5923001F098F956
:104984000E4801F09BF90028FAD100F1804000F5AF
:10499400943001F08DF90A4801F090F90028FAD119
:1049A40000F18040012100F5923001F08DF90448B6
:1049B400012101F089F906B010BDC0460024014070
:1049C4000028014070B584B0044668460D4603F0E3
:1049D400BFFB4FF00003ADF80430ADF80630ADF87E
:1049E4000830ADF80C304FF00C036E460095ADF86E
:1049F4000A3084B91D4B1E481D6003F03DFD1C4860
:104A0400694603F0EBFC1A4840F22551012203F0F9
:104A1400D9FB174824E0012C10D1164B16481D6011
:104A240003F02AFD1448694603F0D8FC124840F20A
:104A34002551012203F0C6FB0F4811E0022C12D1CC
:104A44000E4B0F481D6003F017FD0D48694603F037
:104A5400C5FC0B4840F22551012203F0B3FB084882
:104A6400012103F0A1FB04B070BDC0463001002059
:104A7400003801403401002000500040380100207B
:104A84000048004000B581B002F0EEF84FF48030E9
:104A940002F00AF902F022F9012824D1102001F0D1
:104AA400F1FA022001F0D6FA002002F061F90020A8
:104AB40002F072F94FF4806002F064F94FF4803030
:104AC4004FF4E01102F032F9012002F039F93920F3
:104AD40002F062FA0028FAD0022002F037F902F05C
:104AE4003FF90828FBD1012146F63D6002F00AFA9D
:104AF4000448012102F014FA012002F045F801B043
:104B040000BDC0460F40141800B542F2283081B0F1
:104B140002F016FC012002F02FFC01B000BDC046DB
:104B240070B588B00DF1160528460DF106064FF054
:104B3400804402F041FF304602F04AFF204603F071
:104B4400A1FA4FF0FF33ADF81A3020464FF00003BE
:104B54002946ADF81630ADF81C30ADF8183002F027
:104B640033FC0122204640F2D22103F01FF84FF01B
:104B74000003ADF80630ADF80830ADF80E300B4B3D
:104B840020461B883146ADF80C3002F055FD204616
:104B9400002103F0B9F820461021012202F056FF4B
:104BA4002046012102F036FF08B070BD2E0100201E
:104BB40070B588B00DF11605244C28460DF1060693
:104BC40002F0FAFE304602F003FF204603F05AFAE0
:104BD4004FF04703ADF816304FF00003ADF818302E
:104BE4004FF4FA63ADF81A304FF00003ADF81C30FF
:104BF4002046002329468DF81E3002F0E5FB4FF0D5
:104C04006003ADF806304FF00103ADF808304FF003
:104C14000003ADF80A30BDF81A3020465B08ADF841
:104C24000C3031464FF00203ADF80E3002F004FDB3
:104C34002046002103F068F82046012102F0EAFE34
:104C44002046012102F0F4FE08B070BD00080040C7
:104C540010B503F080FCFFF715FFFFF7F1FCFFF739
:104C640033FD01F01BFA194B00201968FFF7AAFE67
:104C74000020FEF725FE164B164C19680220FFF79C
:104C8400A1FEFFF729FEFFF73FFFFFF749FFFFF7FC
:104C9400E3FDFFF78DFF2046102101F0E1FC2046E3
:104CA400202104F5806401F0D9FC20464FF4806192
:104CB40001F0D4FC4FF40061204601F0CFFC03F076
:104CC4004CFC00F003FF00F069FE10BD3001002031
:104CD40038010020000C01407047C046084B0022F8
:104CE400196805E00023C91801330A2BFBD10132EE
:104CF4008242F7D3024B1960024B19607047C046D9
:104D0400880B00208C0B0020034A136813B113682E
:104D1400013B13607047C046900B0020400000F137
:104D2400006000F5FE2000887047C04600B583B0DF
:104D340001F0B4F9352001F0FFF9044801F0FAFB61
:104D44008DF8070001F0B6F903B000BD00F00708C4
:104D5400F0B5430003F1006404F5FE242388ADF5A7
:104D6400806D8B4283B00D4641D0B0F5007F3ED2BA
:104D740002A900220239530003F1006303F5FE2364
:104D84001B8821F812300132B2F5007FF3D121F8EB
:104D9400105001F083F9352001F0CEF925B12388B4
:104DA4004FF6FF76B34206D12046294601F028FB90
:104DB4008DF8070419E0104801F0BCFB02AD37463A
:104DC4000D4C0E4E8DF80704023D0D4B05EB04020D
:104DD40013441988B94204D0204601F011FB8DF820
:104DE4000704B44201D00234EFE701F063F903B0E1
:104DF4000DF5806DF0BDC04600F00708FEF307080E
:104E04000010F8F700B5002081B000F069F8034BFA
:104E1400000980B2185C01B000BDC0463C0100200E
:104E240000B5012881B00BD100F1804000F5843039
:104E340000F57F7003304FF4807101F00FFC04E043
:104E440003484FF4807101F00BFC01B000BDC04673
:104E5400000C014010B50446012002F077FA074B1C
:104E64001C601A461368002BFCD16FF0010002F09D
:104E74006DFA002002F06AFA10BDC046900B0020C3
:104E84007B2010B502F088F8012801D1022422E029
:104E94007A2002F081F8012801D101241BE07C2052
:104EA40002F07AF8012801D1032414E07D2002F0F5
:104EB40073F8012801D104240DE07E2002F06CF87F
:104EC400012801D1052406E07F2002F065F80128BD
:104ED4000CBF0624002402F081F8204610BDC04611
:104EE400024B33F8100080B27047C046960B002086
:104EF40070B51E4D1E482C7800F05EFF1D4E26F83E
:104F040014001D482C7800F057FF083426F81400CC
:104F14002B780133DBB22B702B78082B10D10023B4
:104F2400DFF858C02B70002130464A00013130F8B8
:104F3400113033329BB29B080F292CF80230F4D184
:104F44000A4D0F4C2B78012254F8231008480723EC
:104F5400C9B200F0DBFE2B780748083354F823105D
:104F64000122C9B2072300F0D1FE70BD940B0020CA
:104F740000240140960B0020002801401D09002058
:104F84003C020020012807D1044B4FF000021A8094
:104F94001B88034A9BB213807047C046BA13002093
:104FA400B8130020012801D0FF2006E0034B1A8823
:104FB400034B1B88981A18BF01207047B8130020B0
:104FC400BA130020012801D0FF200BE0064A138801
:104FD40001339BB213801388044A9B059B0D32F85E
:104FE4001330D8B27047C046B8130020B80B002065
:104FF400014B01221A707047B60B002000B50B4814
:1050040081B040F2255103F0BBF968B1074803F0C1
:1050140049F9074A138801339BB213801388054A60
:105024009B059B0D22F8130001B000BD0050004009
:10503400BA130020B80B002010B52F4840F22551B8
:1050440003F09EF9002832D02B4803F02BF92B4CA7
:10505400DFF8ACC021782B4A9CF80030C0B2D054A1
:10506400D35C2948294A43549CF800300133DBB20D
:105074008CF8003023780133DBB223701378002BD3
:1050840039D101231370224B1B78012B05D1214BFD
:105094001B78C15C204803F001F91E4A1E481378AE
:1050A40040F226610133DBB21370012221E0124881
:1050B40040F2266103F064F9E8B11848184A03780D
:1050C4001278934209D00378164AD15C0133DBB2DB
:1050D4000370094803F0E2F80DE01348102101F0D1
:1050E400BFFA1148202101F0B9FA034840F22661C1
:1050F400002203F067F810BD0038014018090020B1
:105104001207002012050020160800201B090020A9
:10511400870B0020190900200048004015070020D3
:105124001407002012060020000C0140F0B5364898
:1051340081B040F2255103F023F90446002842D0FF
:10514400314803F0AFF8314E314C324D96F800C07F
:10515400314A21782B78C0B2D054D35C2F4A304FD7
:105164005354535C07F80C3023780133DBB22370BB
:105174002B780133DBB22B7033780133DBB233701D
:10518400284B1B78002B3CD02748102101F05CFAF7
:10519400002836D100F1804000F58630202101F04E
:1051A4005FFA2148102101F059FA204B20481A785F
:1051B400B95C0132D2B21A7003F070F81C4840F2A4
:1051C400266101221BE0104840F2266103F0D8F862
:1051D400B8B11848184A03781278934209D0037872
:1051E400164AD15C0133DBB20370074803F056F86A
:1051F40007E0134B04481C7040F22661002202F0C1
:10520400E1FF01B0F0BDC046004800401407002093
:105214000E05002016090020160700200E030020AA
:1052240012060020B60B0020000C014015070020D8
:105234000038014019090020180900201608002030
:105244001B09002010B50C46E8B900F1804000F5B8
:105254008630202101F004FA1C48102101F0FEF9E7
:10526400A1B21B4803F01AF81948402103F07CF856
:105274000028F9D01021154801F0F2F91348202133
:1052840001F0ECF920E001280ED100F1804000F596
:105294009E4089B2FF3003F001F80E48402103F02C
:1052A40063F80028F9D00FE002280DD100F1804006
:1052B40000F58E4089B2FE3002F0F0FF064840212E
:1052C40003F052F80028F9D010BDC046000C01408C
:1052D400003801400050004000480040014B187065
:1052E4007047C046D8130020014B18787047C04659
:1052F400D8130020014B18707047C046D913002002
:10530400014B18787047C046D9130020054B1B8801
:105314000BB1012004E0044B1B88181E18BF0120A8
:105324007047C046C2130020D2130020164B174A00
:105334001B78FF2B0FD1164912780B881BBB192A37
:1053440021D8144B1A80144B4FF000021A804FF0EE
:1053540001030B8017E0322B127801D9322103E0CC
:10536400002B14BF194603210C4B332A28BF3322C8
:105374001A800B4A01EB810303EB83031380094B6F
:105384004FF001021A807047D8130020D91300206F
:10539400C2130020BC130020C0130020D41300202B
:1053A400D6130020D2130020322901D9322102E081
:1053B400002908BF0321084B332834BF0246332297
:1053C4001A80064A01EB810303EB83031380044B29
:1053D4004FF001021A807047D4130020D613002026
:1053E400D2130020074A138853B9192808D8064B4A
:1053F4004FF000011880054B19804FF00103138012
:105404007047C046C2130020BC130020C013002004
:1054140030B5074D04462146284681B0640802F0A1
:10542400B3FD2846214602F0B7FD01B030BDC046A9
:10543400000800404E4970B50B8873B14D4A13887B
:105444001BB94FF000020A8039E0013B13804A4B3C
:105454001A884A4B33F8120086E0494B1B88002B0C
:1054640000F08480474A1388002B70D146490B888A
:1054740053B9464B1A88464B53F82220454B1288A1
:105484001A804FF001030B80404B3F4D1A88404B6C
:10549400B5F800C053F822303F4E33F81C203F4B80
:1054A40002F01F011A80D30903F00F003C4B318036
:1054B400188032B9324B4FF000042C801C8000203D
:1054C40052E012F0200F374B15D012F0400F4FF07E
:1054D4000104354A1C801CBF4B4213802D4B08BF6E
:1054E40011801B88274A03FB00F31380264B0CF121
:1054F40001021A803AE04FF000021E291A8008D1F6
:10550400244B204A1B8803FB00F313800CF1010396
:105514001BE0264A1388012B1CBF0124148025D1CB
:105524004FF0000313801B4B164A1B88204C03FBCF
:1055340000F334F811001380FFF76AFF32881D4B23
:1055440034F812201A802B8801332B800EE0013BA3
:105554001380144B1B88012B08D1164A124B188850
:105564001388C01880B21080FFF752FF70BDC04688
:10557400D2130020D6130020D4130020D4850008B1
:10558400C2130020BE130020C0130020BC1300204F
:105594007C020020E4020020C6130020C413002073
:1055A400C8130020CA130020CE130020D0130020FB
:1055B4003C860008CC13002000B5064B4FF00002D7
:1055C4001A80054B81B01A800020FFF721FF01B03B
:1055D40000BDC046D2130020C21300200449054A6E
:1055E4000B78C0B2D0540133DBB20B707047C046A5
:1055F400DA130020F6130020014B00221A707047C2
:10560400DA13002070B56B498B784A78487902EB3D
:105614000322694B92B21A800B7912B203EB002376
:105624001FFA83FC654B087AA3F800C0CB7903EB1F
:1056340000239CB2624BC87A1C808B7A03EB002354
:105644009DB2604B887B1D804B7B03EB00239EB295
:105654005D4B487C1E800B7C03EB002399B25B4BB3
:10566400198002F13F0332EA220228BF1A4692113E
:1056740002EB8202D31C32EA220228BF1A4692109D
:1056840002F5007240F2FF339A42C8BF1A4602DCA8
:10569400002AB8BF00224E4B92B21A804D4B1A809A
:1056A4000FFA8CF303F13F0233EA230328BF1346B6
:1056B4009B1103EB8303DA1C33EA230328BF13464D
:1056C4009B1003F5007240F2FF339A42C8BF1A469A
:1056D40002DC002AB8BF00223F4B92B21A803F4B33
:1056E4001A8023B203F13F0233EA230328BF13468F
:1056F4009B1103EB8303DA1C33EA230328BF13460D
:105704009B1003F5007240F2FF339A42C8BF1A4659
:1057140002DC002AB8BF0022314B92B21A80314B0E
:105724001A802BB203F13F0233EA230328BF134646
:105734009B11C3F5007240F2FF339A42C8BF1A4668
:1057440002DC002AB8BF0022274B92B21A80274BF2
:105754001A8033B203F13F0233EA230328BF13460E
:105764009B11C3F5007240F2FF339A42C8BF1A4638
:1057740002DC002AB8BF00221D4B92B21A801D4BD6
:105784001A800BB203F13F0233EA230328BF134606
:105794009B1103F5007340F2FF329342C8BF1346D6
:1057A40002DC002BB8BF0023134A9BB21380134AB8
:1057B400138070BDF6130020DE130020E0130020D8
:1057C400E2130020E4130020E6130020E813002075
:1057D400EA13002047090020EC13002045090020AB
:1057E400EE13002043090020F01300204909002093
:1057F400F21300204B090020F41300204D0900206F
:10580400014B18887047C046EA130020014B1888E2
:105814007047C046EC130020014B18887047C046FF
:10582400EE130020014B18887047C046F013002087
:10583400014B18887047C046F2130020014B1888AA
:105844007047C046F4130020014BB3F900007047C1
:10585400DE130020014BB3F900007047E013002071
:10586400014BB3F900007047E2130020014BB3F978
:1058740000007047E4130020014BB3F900007047A7
:10588400E6130020014BB3F900007047E813002031
:1058940070B53C4E3C4D00243C48022101F088FC8C
:1058A4000028F9D03A484FF4006100F0D9FE315D88
:1058B400364801F021FC3548022101F079FC00282A
:1058C400F9D03248012101F073FC0028F9D02F48A7
:1058D40001F014FC2B782F4AC0B2D05401332E4A65
:1058E4000134DBB22B7084FB0223A3EBE47303EBE0
:1058F40043039C4204D126484FF4006100F0AEFEFD
:10590400092CC9D11F4E204D00242048022101F04A
:105914004FFC0028F9D01E484FF4806100F0A0FE2F
:10592400315D1A4801F0E8FB1848022101F040FCFF
:105934000028F9D01548012101F03AFC0028F9D0DB
:10594400124801F0DBFB2B78124AC0B2D054013369
:10595400114A0134DBB22B7084FB0223A3EBE47302
:1059640003EB43039C4204D109484FF4806100F0E7
:1059740075FE092CC9D1FFF745FE034B00221A70AE
:1059840070BDC046E8020020DA1300200038004051
:1059940000100140F61300205655555510B54748E0
:1059A400022101F005FC0028F9D045484FF480613C
:1059B40000F056FE4148202101F09EFB3F480221A1
:1059C40001F0F6FB0028F9D03C48012101F0F0FB7E
:1059D4000028F9D0394801F091FB3A493A4A0B784A
:1059E400C0B2D0540133DBB20B7034483F2101F014
:1059F40083FB3248022101F0DBFB0028F9D02F4859
:105A0400012101F0D5FB0028F9D02C4801F076FBE8
:105A14002C492D4A0B78C0B2D0540133DBB20B7041
:105A240027484FF4806100F019FE2448022101F058
:105A3400BFFB0028F9D022484FF4806100F010FE2B
:105A44001E48232101F058FB1C48022101F0B0FB41
:105A54000028F9D01948012101F0AAFB0028F9D047
:105A6400164801F04BFB1749174A0B78C0B2D054C3
:105A74000133DBB20B701148102101F03DFB0F48DC
:105A8400022101F095FB0028F9D00C48012101F016
:105A94008FFB0028F9D0094801F030FB094C0A4A71
:105AA4002378C0B2D0540133DBB205484FF480618F
:105AB400237000F0D3FD0023237010BD0038004094
:105AC40000100140DA130020F613002010B54748F7
:105AD400022101F06DFB0028F9D045484FF4006124
:105AE40000F0BEFD4148202101F006FB3F480221A1
:105AF40001F05EFB0028F9D03C48012101F058FB7D
:105B04000028F9D0394801F0F9FA3A493A4A0B78B1
:105B1400C0B2D0540133DBB20B703448FF2101F022
:105B2400EBFA3248022101F043FB0028F9D02F4858
:105B3400012101F03DFB0028F9D02C4801F0DEFAE8
:105B44002C492D4A0B78C0B2D0540133DBB20B7010
:105B540027484FF4006100F081FD2448022101F040
:105B640027FB0028F9D022484FF4006100F078FDAB
:105B74001E48232101F0C0FA1C48022101F018FB41
:105B84000028F9D01948012101F012FB0028F9D0AE
:105B9400164801F0B3FA1749174A0B78C0B2D0542B
:105BA4000133DBB20B701148002101F0A5FA0F4854
:105BB400022101F0FDFA0028F9D00C48012101F07E
:105BC400F7FA0028F9D0094801F098FA094C0A4A72
:105BD4002378C0B2D0540133DBB205484FF40061DE
:105BE400237000F03BFD0023237010BD00380040FB
:105BF40000100140DA130020F613002043680A68FD
:105C040023F4702323F4807313430A7943EA0223B1
:105C14004360CB688A68D0F808C01A43084B0CEA82
:105C240003031A434B7942EA430282600B7CC26A43
:105C3400013B22F47002DBB242EA0352C2627047B3
:105C4400FDF7F1FF00230360037143718360C360B8
:105C5400012303747047C04619B1836843F00103FC
:105C640002E0836823F001038360704719B18368FD
:105C740043F4807302E0836823F480738360704785
:105C8400C9B21AB1436841EA030302E0436823EA54
:105C9400010343607047C046836843F00803836090
:105CA4007047C0468068C00800F001007047C046D5
:105CB400836843F0040383607047C04680688008AB
:105CC40000F001007047C04619B1836843F4A00393
:105CD40002E0836823F4A003836070478068800D2A
:105CE40000F001007047C0464368013923F4604363
:105CF40043EA41334360704719B1436843F4006396
:105D040002E0436823F4006343607047092930B517
:105D140094460C461D464FEA41020BD912191E3A0D
:105D24000723934015FA02F2C16821EA03011143E3
:105D3400C16009E012190723934015FA02F20169C0
:105D440021EA030111430161BCF1060F0CD80CEBED
:105D54008C02053A1F23934014FA02F2416B21EAA4
:105D64000301114341631BE0BCF10C0F4FEA8C02A9
:105D74000BD86244233A1F23934014FA02F2016BB6
:105D840021EA0301114301630AE06244413A1F23FB
:105D9400934014FA02F2C16A21EA03011143C16279
:105DA40030BDC04619B1836843F4801302E08368B0
:105DB40023F4801383607047C06C80B27047C04680
:105DC400014B18687047C0464C24014019B1436820
:105DD40043F4806302E0436823F4806343607047C4
:105DE40019B1436843F4805302E0436823F48053B9
:105DF40043607047836823F4E0431943816070472C
:105E040019B1836843F4004302E0836823F4004338
:105E14008360704719B1836843F4021302E0836816
:105E240023F40213836070478068400D00F0010082
:105E34007047C046092930B58C4615461C464FEAC2
:105E440041020BD962441E3A0723934014FA02F22A
:105E5400C16821EA03011143C16009E062440723D8
:105E6400934014FA02F2016921EA0301114301612A
:105E7400836B1F2103F440126FEA12522A44033247
:105E8400D2B202EB820291400CFA02F223EA01033D
:105E94001343836330BDC046836B013923F440133D
:105EA40043EA01538363704782B00A5002B07047DB
:105EB40082B001902830405880B202B07047C0468A
:105EC400436823F4400323F400731943416070478B
:105ED400416282627047C046436823F01F0319433E
:105EE4004160704720B1054A936843F4000303E01E
:105EF400024A936823F4000393607047002401402E
:105F0400036819420CBF0020012070476FEA0101A9
:105F1400016070474268036813EA112301D100202D
:105F240004E0CBB213420CBF002001207047C046EE
:105F34006FEA11210160704700B5144B83B0984299
:105F440001900FD003F5A053984213D0A3F5C0538A
:105F5400984219D14FF40070012100F0EFFF4FF483
:105F640000700EE04FF48060012100F0E7FF4FF471
:105F7400806006E04FF40040012100F0DFFF4FF4A1
:105F84000040002100F0DAFF03B000BD002801400A
:105F9400014B18607047C04604860D42014B1860DF
:105FA4007047C04600860D42014B18607047C046DA
:105FB40088860D42044A938D23F460731B041B0CE2
:105FC400184390857047C046006C0040044A938D86
:105FD40023F07F031B041B0C034393857047C046C7
:105FE400006C004000F1804000F5D840018070470B
:105FF40000F1804000F5D840008880B27047C04668
:10600400014B1868C0B27047A0860D42034A938EB4
:106014009BB243F0010393867047C046006C004076
:10602400014B1868C0B27047A4860D42034A938E90
:106034009BB243F0020393867047C046006C004055
:1060440000B5012081B000F095FF002000F092FF20
:1060540001B000BD044A136803F0380313601368E9
:10606400184310607047C04600200240044A136879
:1060740023F0080313601368184310607047C04688
:1060840000200240044A136823F0100313601368CD
:10609400184310607047C04600200240034B044A76
:1060A4005A6002F188325A607047C04600200240AC
:1060B40023016745024A136943F080031361704763
:1060C40000200240014BD86980087047002002403C
:1060D400014B186A7047C04600200240024BD86941
:1060E400400800F00100704700200240024B18688D
:1060F400400900F0010070470020024021B1054A28
:10610400136940EA030303E0024A136923EA000324
:106114001361704700200240012804D1054BDB695C
:1061240003F0010005E0034BDB6818420CBF0020BC
:106134000120704700200240014BD8607047C046E0
:1061440000200240094AD36813F0010F01D0012056
:106154000BE0D36813F0040F01D0022005E0D368EC
:1061640013F0100F14BF03200420704700200240D6
:1061740010B5234A82B0D368014613F0010F01D051
:1061840001202AE0D36813F0040F01D0022024E098
:10619400D36813F0100F14BF032004201DE00194F2
:1061A400CDF804C002E0019B013B0193019B002B4D
:1061B400F9D1D36813F0010F01D001200BE0D368AB
:1061C40013F0040F01D0022005E0D36813F0100F80
:1061D40014BF03200420013903E0094A00244FF0CE
:1061E400FF0C0B1E18BF0123012814BF002303F06A
:1061F4000103002BD3D1002908BF052002B010BD34
:1062040000200240F0B5134B134C81B0A36003F19E
:1062140088330546A3600F200E461746FFF7A8FFF4
:10622400042815D123690D4A43F01003236145F076
:10623400F80346EA030347EA030353800F20FFF7FA
:1062440097FF01281FBF226941F6EF7313402361B2
:1062540001B0F0BD230167450020024000F8FF1F94
:1062640030B5054681B040F6FF70FFF781FF042882
:106274003CD11F4C1F4B00F57E60A36003F18833B3
:10628400A36023691B3043F020032361236943F097
:1062940040032361FFF76CFF042820D1236941F6F2
:1062A400DF7203EA02022261236943F010032361CF
:1062B4001DB1114B4FF0000202E00F4B4FF0A5024D
:1062C4001A8040F6FF70FFF753FF01280ED00849EB
:1062D40041F6EF730A6902EA03030B6106E0012841
:1062E4001FBF226941F6DF731340236101B030BD43
:1062F400002002402301674500F8FF1F10B5044643
:106304000F20FFF735FF042850D1294A294B6FEAA3
:106314000404936003F1883393601369E1B243F09A
:106324001003FF29136104D0234B0F201981FFF7B9
:106334001FFF04F47F431A0AB2F1FF0318BF0123BD
:10634400042814BF002303F0010323B11A4B0F20C8
:106354005A81FFF70DFF04F47F031A0CB2F1FF0317
:1063640018BF0123042814BF002303F0010323B141
:10637400114B0F209A81FFF7FBFE220EB2F1FF03AF
:1063840018BF0123042814BF002303F0010323B121
:10639400094B0F20DA81FFF7EBFE01281FBF0449E8
:1063A40041F6EF730A69134018BF0B6110BDC04674
:1063B400002002402301674500F8FF1F70B5064620
:1063C4000F200D46FFF7D4FE042814D10A4C0B4BC2
:1063D4000F20A36003F18833A360236943F0100303
:1063E40023613580FFF7C4FE01281FBF226941F6EF
:1063F400EF731340236170BD002002402301674501
:1064040070B506460F200D46FFF7B2FE04280FD1E3
:10641400084C0F20236943F0010323613580FFF703
:10642400A7FE01281FBF226941F6FE7313402361B2
:1064340070BDC0460020024070B506460F200D46D0
:10644400FFF796FE042817D10C4C0F20236943F064
:1064540001032361ABB23380FFF78AFE042804D121
:106464002B0C73800F20FFF783FE01281FBF2269C6
:1064740041F6FE731340236170BDC0460020024004
:1064840010B540F6FF70FFF773FE04282CD1174CAB
:10649400174B00F57E60A36003F18833A360236982
:1064A4001B3043F020032361236943F0400323613D
:1064B400FFF75EFE042810D1226941F6DF7302EA79
:1064C4000303236123694FF0A50243F01003236102
:1064D400084B0F201A80FFF74BFE01281FBF2269CB
:1064E40041F6EF731340236110BDC0460020024003
:1064F4002301674500F8FF1F10B540F6FF70FFF752
:1065040037FE042813D10A4C23690343236123690A
:1065140000F57E6043F0400323611B30FFF728FE43
:1065240001281FBF226941F6FB731340236110BD8C
:106534000020024030B5054681B040F6FF70FFF7F9
:1065440017FE042815D10C4C00F57E6023691B301E
:1065540043F0020323616561236943F0400323612F
:10656400FFF706FE01281FBF226941F6FD731340A1
:10657400236101B030BDC04600200240F0B5CD78A3
:106584000E8815F0100F18BF8B7805F00F0718BF91
:106594001F4316F0FF0F83B01ED0046800210122B0
:1065A40012FA01F303EA060C9C4511D18A000F2369
:1065B400934017FA02F224EA03041443282D0193AA
:1065C40008BFC0F814C003D0482D08BFC0F810C0DD
:1065D40001310829E3D10460FF2E20D94468002149
:1065E400012201F1080312FA03F303EA060C9C45A5
:1065F40011D18A000F23934017FA02F224EA03040C
:106604001443282D019308BFC0F814C003D0482DAB
:1066140008BFC0F810C001310829E1D1446003B0BB
:10662400F0BDC0464FF0FF33038002238370042380
:10663400C3707047836819420CBF00200120704763
:10664400806880B27047C046C36819420CBF0020FE
:1066540001207047C06880B27047C046016170472E
:10666400416170470AB1016100E041617047C04671
:10667400C160704741F480338361816183618369C0
:1066840083697047DFF818C04FF68073DCF8002088
:1066940041EA001102EA03031943CCF800107047E1
:1066A40000000140014B18607047C0461C002042A6
:1066B40030B500F4401304040D461449240CB3F51A
:1066C400401FD1F804C006D14B682CF0706223F04F
:1066D40070634B6010E010F4801F05D000F470224A
:1066E400120C0323934003E0430D1B0114FA03F33C
:1066F4002CEA030343F0706225B1430D1B0114FA25
:1067040003F31A43014B5A6030BDC04600000140F8
:1067140010B501F00304A4000F23A340A040DFF848
:1067240020C0890802315CF8212022EA03024CF8D7
:1067340021205CF8213018434CF8210010BDC046DC
:106744000000014000B50120012181B000F0F6FBFA
:106754000120002100F0F2FB01B000BD00B5274B81
:1067640083B0984201902BD00CD8A3F500639842D3
:106774001AD003F5806398421CD0A3F500639842B5
:106784003AD10BE01E4B984226D003F58063984221
:1067940028D0A3F5006398422ED117E004200121EC
:1067A40000F0CCFB042024E00820012100F0C6FB0B
:1067B40008201EE01020012100F0C0FB102018E08A
:1067C4002020012100F0BAFB202012E0402001210A
:1067D40000F0B4FB40200CE08020012100F0AEFB6F
:1067E400802006E04FF48070012100F0A7FB4FF4F5
:1067F4008070002100F0A2FB03B000BD0014014032
:10680400001C01400B4B4FF0FF316FF07042C3F896
:1068140080101846C3F88420C3F88011C3F884217B
:106824000021002202F1C00301320F2A40F8231094
:10683400F8D1704700E100E0094A4FF020630949AC
:10684400536000239360D160136153619361D361FA
:1068540013625362013B9362D36213637047C04671
:1068640000ED00E00000FA0540F0BE60024B40F489
:106874002020D8607047C04600ED00E030B5C378F2
:1068840005785BB31A4B4178DA681A4C6FEA020256
:1068940002F4E062120AC2F1040399400F23D340C8
:1068A400827805F0030013400B43C0001B01FF2254
:1068B400824083404FEA950C0CF1C00C54F82C1024
:1068C400134021EA02010B4344F82C3005F01F0267
:1068D40001239340690944F8213008E005F01F02C0
:1068E400012393406909034A203142F8213030BD25
:1068F40000ED00E000E100E00023037043708370CA
:10690400C3707047034B04485B6803EA0000000B44
:106914007047C04600ED00E000F03F0000F01F03A8
:1069240001229A404009054B403053F820001040A2
:10693400904214BF002001207047C04600E100E0EF
:10694400014B18607047C04600EF00E04109012385
:1069540000F01F008340024A603142F82130704742
:1069640000E100E0024B58688005800D7047C04686
:1069740000ED00E000F01F0301229A404009054B9E
:10698400803053F820001040904214BF00200120B2
:106994007047C04600E100E0014B18687047C046EC
:1069A40000ED00E021F0604121F07F01014B014343
:1069B4009960704700ED00E0014A024BDA607047CD
:1069C4000400FA0500ED00E0014A024BDA6070476A
:1069D4000100FA0500ED00E021B1054A136940EA1F
:1069E400030303E0024A136923EA000313617047B7
:1069F40000ED00E000F01F00012313FA00F021B1C4
:106A0400054A536A40EA030303E0034A536A23EA4C
:106A1400000353627047C04600ED00E010B5144C0B
:106A2400E3686FEA030303F4E0631B0AC3F1040C95
:106A340001FA0CF14FF0FF0C2CFA03F31A400A434D
:106A440000F0C001400900F018000CFA00FC12012B
:106A540082408909063154F8213023EA0C0344F8B2
:106A6400213054F821301A4344F8212010BDC04687
:106A740000ED00E0800A00F00F0001238340044A87
:106A8400506A03EA0000984214BF002001207047B6
:106A940000ED00E000F01F0001238340024A51682A
:106AA4000B4353607047C04600ED00E000F01F0048
:106AB400013801238340024A51680B4353607047F5
:106AC40000ED00E0800B00F00F0001238340044A36
:106AD400506A03EA0000984214BF00200120704766
:106AE40000ED00E0830C13F0030302D10D4BD86AD0
:106AF40017E0012B13D103F1604303F56C43FE331C
:106B0400020D013302F00302996AD30031FA03F053
:106B1400022A14BF00F00F0000F0FF0001E0014B57
:106B2400186B704700ED00E010F4800F0BBF024BB0
:106B3400014B586B986B704700ED00E000B581B0D5
:106B440001F014FD01B000BD00B5000181B001F0F9
:106B54000AFD01B000BDC04600B581B001F001FDE1
:106B640001B000BD00B581B001F0F9FC01B000BD79
:106B740000B581B001F0F1FC01B000BD00B581B0F9
:106B840001F0E9FC01B000BD014B18607047C0463C
:106B940020000E42014B18607047C04610000E42A0
:106BA400034A136823F0E003184310607047C0469B
:106BB40000700040014B18607047C046A0000E42B0
:106BC400034B5B6818420CBF002001207047C0468D
:106BD40000700040024A136843EA80031360704760
:106BE400007000400B4A00B5136881B043F0040301
:106BF4001360136843F00203136002F1204202F5AC
:106C0400FA421032136843F00403136001F07EFC6F
:106C140001B000BD007000400C4A00B5136881B09B
:106C240023F003031843106002F1204202F5FA42F4
:106C340010321368012943F00403136002D101F0F8
:106C440065FC01E001F064FC01B000BD007000408F
:106C540010B54FF080542046012100F07DF9204604
:106C6400002100F079F910BD0D4A136843F00103C7
:106C7400136051680B4B01EA03035360136823F05C
:106C8400847323F480331360136823F48023136024
:106C9400536823F4FE035360002393607047C04697
:106CA400001002400000FFF80B4AB0F5803F136863
:106CB40023F480331360136823F48023136003D018
:106CC400B0F5802F07D102E01368034302E0136894
:106CD40043F4A023136070470010024082B00023E5
:106CE400094901930A68019B013312F4003F01939F
:106CF40003D1019BB3F5A06FF4D1034B1868400C8A
:106D040000F0010002B0704700100240034A13680B
:106D140023F0F80343EAC0031360704700100240F5
:106D2400014B18607047C04600004242034A536852
:106D340023F47C131843084350607047001002404A
:106D4400014B18607047C04660004242034A5368D2
:106D540023F00303184350607047C04600100240FC
:106D6400024B586800F00C007047C0460010024007
:106D7400034A536823F0F003184350607047C04639
:106D840000100240034A536823F4E0631843506040
:106D94007047C04600100240034A536823F460530E
:106DA40043EAC003536070470010024021B1054A12
:106DB400137840EA030303E0024A137823EA00034A
:106DC4001370704709100240014B18607047C046A9
:106DD400D8004242034A536823F4404318435060A6
:106DE4007047C04600100240064A00230128137071
:106DF400137008BF107003D0042801D10523137049
:106E04007047C04620100240014B18607047C046CE
:106E140080044242024A136A184310627047C04613
:106E240000100240014B18607047C0463C044242C7
:106E3400294984464B6803F00C03042B21D0082B0A
:106E44001FD14B6803F470139B0C9A1C4B6813F40A
:106E5400803F08BFC2EB421306D04B6813F4003FD7
:106E64004FEA421306D09B1AC3EB831302EBC3030E
:106E74001B0207E09B1AC3EB831302EBC3035B0201
:106E840000E0164B1448CCF800304368144A03F071
:106E9400F0031B09D35CDCF80010D940CCF80410D3
:106EA400436803F4E0631B0AD35C31FA03F3CCF8C0
:106EB4000830436803F46053DB0AD35C094AD940C1
:106EC400CCF80C10436803F440439B0BD35CB1FB38
:106ED400F3F1CCF8101070470010024000127A0051
:106EE400548800086488000821B1054A536940EABF
:106EF400030303E0024A536923EA00035361704722
:106F04000010024021B1054A936940EA030303E0FB
:106F1400024A936923EA0003936170470010024018
:106F240021B1054AD36940EA030303E0024AD36965
:106F340023EA0003D36170470010024021B1054ADF
:106F4400D36840EA030303E0024AD36823EA000358
:106F5400D36070470010024021B1054A136940EA2A
:106F6400030303E0024A136923EA00031361704731
:106F740000100240014B18607047C0464004424272
:106F8400014B18607047C0464C004242014B1870D8
:106F94007047C046071002404309012B08D103F192
:106FA400804303F5023303F5FF6307331B680CE0EA
:106FB400022B08D103F1804303F5023303F5FF6389
:106FC40006331B6A01E0044B5B6A00F01F0033FACE
:106FD40000F000F00100704700100240024A536ABA
:106FE40043F080735362704700100240034B9B6868
:106FF40018420CBF002001207047C0460010024018
:10700400014B18707047C0460A1002400A884B882A
:10701400B0F800C013438A880CF4415C1343CA8857
:1070240013430A8913434A8913438A891343CA8938
:1070340013434CEA030C1FFA8CFCA0F800C0838BAA
:1070440023F400631B041B0C83830B8A03827047A5
:107054004FF00003038043808380C3800381438116
:107064008381C3814FF00703038270474FF000030D
:10707400038043808380C3804FF0020303814FF079
:10708400000343817047C04621B103889BB243F09B
:10709400400304E0038823F040031B041B0C03801B
:1070A4007047C04621B1838B9BB243F4806304E0F4
:1070B400838B23F480631B041B0C83837047C046BB
:1070C400090901238B4099B222B183889BB241EA1A
:1070D400030303E083889BB223EA010383807047A0
:1070E40022B183889BB241EA030303E083889BB205
:1070F40023EA01038380704781817047808980B2CD
:107104007047C0464FF6FF63994217BF0388038850
:107114009BB243F4807308BF0B4003807047C046A2
:1071240021B183889BB243F0040304E0838823F0F5
:1071340004031B041B0C83807047C046038823F49C
:1071440000631B041B0C038003889BB2194301805A
:107154007047C04603889BB243F480530380704752
:1071640021B103889BB243F4005304E0038823F461
:1071740000531B041B0C03807047C046012914BF35
:10718400038B838A98B27047008A80B27047C046E6
:10719400B1F5804F04D103889BB243F4804304E0EB
:1071A400038823F480431B041B0C03807047C046F0
:1071B400038919420CBF0020012070476FEA0101C6
:1071C40089B201817047C046838802891FFA83FC13
:1071D400012001F00F0310FA03F392B21A4201D115
:1071E400002007E00B0910FA03F31CEA030F0CBF9D
:1071F400002001207047C04601F00F0101238B409D
:107204006FEA03039BB203817047C046838BF0B5DA
:1072140023F47A6323F01F031B041B0C83834FF0B6
:1072240002030384838B87B09FB20B890546022B2C
:107234000C4602D10221002226E08B8801A8002BF3
:107244000CBF01260226FFF7F3FDE3882289B3F57C
:10725400007F019B04D103EB83035B00120205E072
:10726400520106FB02F203EB83035B00B3FBF2F370
:107274000533134A9BB2A3FB0223DB0803F001028C
:1072840012025B0899B292B28B1E9BB2FE2B28BFEE
:10729400002228BF022141EA0203E28813439BB281
:1072A4002B842388628847EA030343F4006313436F
:1072B400A2881343628913439BB2AB8307B0F0BD2A
:1072C400CDCCCCCC00B5164B83B0984201901BD0EA
:1072D40003F57443984204D0A3F5784398421DD132
:1072E4000AE001214FF48050FFF728FE4FF480504C
:1072F4000021FFF723FE11E04FF480400121FFF746
:107304002BFE4FF4804006E04FF400400121FFF7CC
:1073140023FE4FF400400021FFF71EFE03B000BD22
:10732400003C0040042803D1044A1368034303E0EB
:10733400024A136823F004031360704710E000E06E
:10734400014B58607047C04610E000E0012803D1AB
:10735400084A1368034306E010F1020F05D1054AF9
:10736400136823F00103136002E0024B00229A60C9
:107374007047C04610E000E020B1054A136843F0AE
:10738400020303E0024A136823F002031360704708
:1073940010E000E0014B98687047C04610E000E040
:1073A400C308022B024606D103F1604303F5604390
:1073B4000E33186801E0034BD868D04000F0010098
:1073C4007047C04610E000E0038882B003F08F03EA
:1073D40003800388CA889BB213434A8801901343ED
:1073E4009BB203808B880B4A83850B888C4603856C
:1073F4004FF001038382084B984214BF00230123FA
:10740400904208BF43F0010313B19CF8083003868F
:1074140002B07047002C014000340140038C8C46BC
:1074240023F001031B041B0C0384018C8388F0B537
:107434009DB2038BBCF808209EB2BCF8023021F048
:107444000201134309049BB2090C43EA0104BCF88A
:107454000630BCF8007083861A4B1B4A984214BF4E
:107464000023012383B0904208BF43F0010301903D
:10747400EBB102F14042A2F53052BCF80A30093AAD
:1074840004EA02021A434FF6FB7302EA0303BCF850
:10749400042047F6FF4143EA0204BCF80E30BCF86E
:1074A4000C2005EA010113439BB243EA01054FF6A0
:1074B4008F7306EA03033B4385800383048403B08C
:1074C400F0BDC04600340140002C0140038CF0B5EF
:1074D40023F010031B041B0C0384038C828823F009
:1074E400200395B2028B1B0496B20A891B0C43EA53
:1074F40002134A889BB243EA02139CB2CB880F88DA
:1075040003871E4B1E4A984214BF0023012383B0F5
:10751400904208BF43F0010301908C460BB302F183
:107524004042A2F53252BCF80A30013A04EA02029F
:1075340042EA03124FF6BF7302EA0303BCF80420C5
:1075440043EA02139CB2BCF80C2047F2FF3305EA6D
:10755400030343EA8203BCF80E209BB243EA82038E
:107564009DB248F6FF7306EA030343EA07239BB27E
:1075740085800383048403B0F0BDC0460034014019
:10758400002C0140038CF0B523F480731B041B0C06
:107594000384038C828823F4007395B2828B1B04CA
:1075A40096B20A891B0C43EA02234A889BB243EA37
:1075B40002239CB2CB880F8883871D4B1D4A9842B7
:1075C40014BF0023012383B0904208BF43F001039A
:1075D40001908C460BB302F14042A2F55052BCF824
:1075E4000A30013A04EA020242EA03224FF6FF3368
:1075F40002EA0303BCF8042043EA02239CB2BCF869
:107604000C2044F6FF7305EA030343EA0213BCF8B3
:107614000E209BB243EA02139DB24FF68F7306EA23
:1076240003033B4385808383048403B0F0BDC046D9
:1076340000340140002C0140038CF0B523F4805346
:107644001B041B0C0384038C85B09BB202938388B8
:107654004A881FFA83FC838B0E889DB2CB880F89DE
:10766400A0F84030174B0192174A984214BF0023E8
:107674000123904208BF43F0010303900C463BB141
:107684004FEA8C43A2899B0C43EA82131FFA83FCC2
:1076940048F6FF7305EA030343EA06239BB2029A02
:1076A400A0F804C083834DF6FF7302EA030343EAA0
:1076B4000733019A9BB243EA02339BB2038405B0B9
:1076C400F0BDC04600340140002C01400B8830B5A9
:1076D40004460D4643BB238C498823F001031B0455
:1076E4001B0CB5F804C028892384238B228C23F037
:1076F400F3031B041B0C22F0020243EA00131204DE
:107704009BB2120C41F0010143EA0C030A432383A8
:107714002284238BEA8823F00C031B041B0C238391
:10772400238B9BB213432EE0042B2ED1238CB1F870
:1077340002C023F010031B041B0C888809892384CE
:10774400238B228C23F440731B0522F020021B0D93
:10775400120443EA0133120C9BB242EA0C1243EACC
:10776400002392B29BB242F0100223832284238B23
:10777400EA8823F440631B041B0C2383238B9BB2F2
:1077840043EA02239BB2238355E0082BB1F802C0DD
:107794008888098925D1238C23F480731B041B0C4E
:1077A4002384A38B228C23F0F30322F400721B04A2
:1077B40012041B0C120C43EA011342EA0C229BB282
:1077C40092B2034342F48072A3832284A38BEA8897
:1077D40023F00C031B041B0CA383A38B9BB2134346
:1077E40028E0238C23F480531B041B0C2384A38BD9
:1077F400228C23F440731B0522F400521B0D120447
:1078040043EA0023120C9BB242EA0C3243EA0133EE
:1078140092B29BB242F48052A3832284A38BEA885F
:1078240023F440631B041B0CA383A38B9BB243EA86
:1078340002239BB2A38330BD8C46F0B5BCF8003064
:107844004C888988002C0CBF0227002701290CBF13
:1078540002260126BCF80850002B4BD1038C23F0E0
:1078640001031B041B0C0384038B028C23F0F3031E
:107874001B041B0C43EA051322F002029BB2120400
:107884000B43120C44F001010A4303830284038B6B
:10789400BCF8061023F00C031B041B0C0383038B9E
:1078A4009BB20B430383038C23F010031B041B0CB8
:1078B4000384038B028C23F440731B0522F03002F3
:1078C4001B0D120443EA0533120C9BB242F0100262
:1078D40043EA062342EA071203830284038B23F458
:1078E40040631B041B0C0383038B9BB243EA0123F9
:1078F4009BB24CE0038C23F010031B041B0C038489
:10790400038B028C23F440731B0522F020021B0D11
:10791400120443EA0533120C9BB242EA041243EA0E
:10792400012392B29BB242F0100203830284038BC0
:10793400BCF8061023F440631B041B0C0383038B65
:107944009BB243EA01239BB20383038C23F001031C
:107954001B041B0C0384038B028C23F0F3031B0412
:1079640022F003021B0C120443EA0513120C9BB20F
:1079740042F0010233433A4303830284038B23F02E
:107984000C031B041B0C0383038B9BB20B43038369
:10799400F0BDC0460A884B8813438A881343CA88BB
:1079A40013430A8913434A8913438A8913439BB2B5
:1079B400A0F844307047C0464FF0FF3383804FF047
:1079C40000030380C3804380002303727047C046D2
:1079D4004FF00003038043808380C380038143818D
:1079E4008381C3817047C0464FF000030380438006
:1079F4004FF0010383804FF00003C380038170477D
:107A04004FF00003038043808380C380038143815C
:107A14008381704721B103889BB243F0010304E0E2
:107A2400038823F001039B059B0D03807047C04628
:107A340029B1B0F844309BB243F4004303E0B0F8FA
:107A440044305B045B0CA0F84430704722B1838956
:107A54009BB241EA030303E083899BB223EA010357
:107A640083817047818270470A43A0F84820704799
:107A740022B183899BB241EA030303E083899BB269
:107A840023EA010383817047038923F007031B045E
:107A94001B0C03817047C046038923F070031B0449
:107AA4001B0C1943018103899BB243F00703038133
:107AB4007047C04610B50C46602C11469C461AD13E
:107AC400038C23F010031B041B0C0384038B028C14
:107AD40023F4407322F030021B0512041B0D120C18
:107AE40043F4807342F0100243EA0C3342EA011279
:107AF4009BB292B217E0038C23F001031B041B0C0E
:107B04000384038B028C23F0F3031B0422F003028F
:107B14001B0C120443F00103120C43EA0C1342F051
:107B240001029BB20A4303830284038923F0700396
:107B34001B041B0C44EA0303038103899BB243F037
:107B44000703038110BDC046B0F808C05FFA8CFC7F
:107B540041EA0C010A4342EA032292B202810389F8
:107B640023F077031B041B0C43F077030381704756
:107B7400B0F808C05FFA8CFC41EA0C010A4342EAFF
:107B8400032292B2028103899BB243F480430381AE
:107B94007047C046B0F808C05FFA8CFC41EA0C019B
:107BA4000A4342EA032292B202817047018582822B
:107BB4007047C046038823F070039B059B0D19434F
:107BC40001807047038923F070031B041B0C1943C5
:107BD40001817047B0F808C030B5048B058C24F4DB
:107BE400407425F0220524F003042D042CF0070C26
:107BF40024042D0C4FEA0C4C240C2A434FEA1C4C51
:107C040044F4807442EA031241EA0C0144F0010492
:107C140092B201810483028430BDC046038B23F0F9
:107C240070031B041B0C194301837047038B23F45B
:107C3400E0431B041B0C43EA01239BB203837047FC
:107C4400838B23F070031B041B0C1943818370473F
:107C5400838B23F4E0431B041B0C43EA01239BB2F4
:107C64008383704721B103889BB243F0800304E00F
:107C7400038823F080039B059B0D03807047C04657
:107C840021B183889BB243F0040304E0838823F08A
:107C940004031B041B0C83807047C04621B18388F6
:107CA4009BB243F0080304E0838823F008031B0419
:107CB4001B0C83807047C04621B183889BB243F07C
:107CC400010304E0838823F001031B041B0C83805D
:107CD4007047C046038B23F008031B041B0C194395
:107CE40001837047038B23F400631B041B0C43EADA
:107CF40001239BB203837047838B23F008031B0487
:107D04001B0C194381837047838B23F400631B048A
:107D14001B0C43EA01239BB283837047038B23F03C
:107D240004031B041B0C194301837047038B23F4C6
:107D340080631B041B0C43EA01239BB2038370473B
:107D4400838B23F004031B041B0C194381837047AA
:107D5400838B23F480631B041B0C43EA01239BB233
:107D640083837047038B23F080031B041B0C19438C
:107D740001837047038B5B045B0C43EA01239BB2D2
:107D840003837047838B23F080031B041B0C19436C
:107D940081837047838B5B045B0C43EA01239BB2B2
:107DA40083837047038C23F002031B041B0C1943C9
:107DB40001847047038C23F008031B041B0C194334
:107DC40001847047038C23F020031B041B0C43EA3B
:107DD40001139BB203847047038C23F080031B04BC
:107DE4001B0C43EA01139BB203847047038C23F4F6
:107DF40000731B041B0C43EA01239BB203847047EA
:107E0400038C23F400631B041B0C43EA01239BB281
:107E140003847047038C23F400531B041B0C43EAB4
:107E240001339BB20384704701238B408A40B0F82E
:107E340020C01FFA8CFC2CEA030CA0F820C0038C91
:107E44001A4392B20284704704238B408A40B0F8EC
:107E540020C01FFA8CFC2CEA030CA0F820C0038C71
:107E64001A4392B20284704701238B409446028CD9
:107E740082B092B222EA0302082914BF002301232C
:107E8400002908BF43F00103019002846BB110F193
:107E94001802490850584FF68F7300EA03035350F1
:107EA400535843EA0C03535010E001980A1F92B24E
:107EB40018305208815848F6FF7301EA03038350CF
:107EC40081584FEA0C239BB21943815002B070478A
:107ED40021B103889BB243F0020304E0038823F03A
:107EE40002039B059B0D03807047C04621B10388A4
:107EF4009BB243F0040304E0038823F004039B05CE
:107F04009B0D03807047C04621B183889BB243F028
:107F1400800304E0838823F080031B041B0C83800C
:107F24007047C046038823F008039B059B0D03801C
:107F340003889BB2194301807047C046838823F0AD
:107F440070031B041B0C838083889BB219438180BC
:107F54007047C046038923F007031B041B0C0381ED
:107F640003899BB2194301817047C046038923F0FA
:107F740080031B041B0C038103899BB219430181F9
:107F84007047C046818470478185704781867047F9
:107F94000187704781877047A0F840107047C0463A
:107FA400038B23F00C031B041B0C0383038B9BB276
:107FB400194301837047C046038B23F440631B04B9
:107FC4001B0C0383038B9BB243EA01239BB2038301
:107FD4007047C046838B23F00C031B041B0C838364
:107FE400838B9BB2194381837047C046838B23F4F0
:107FF40040631B041B0C8383838B9BB243EA0123E2
:108004009BB283837047C0460388DBB20380038836
:108014009BB2194301807047808E80B27047C0467E
:10802400008F80B27047C046808F80B27047C046D0
:10803400B0F8400080B27047808C80B27047C04670
:10804400008D80B27047C046038A19420CBF0020DD
:10805400012070476FEA010189B201827047C0466E
:10806400038A828919420CBF0020012011420CBFEF
:10807400002000F0010070476FEA010189B201821B
:108084007047C04600B52F4B83B09842019037D05B
:108094000BD8A3F50063984226D003F58063984279
:1080A40028D0B0F1804F4AD118E0274B984233D002
:1080B40004D8A3F58063984241D127E0234B98422A
:1080C40004D003F50063984239D12EE04FF40060E8
:1080D4000121FEF733FF4FF400602DE00120012160
:1080E400FEF73AFF01201CE002200121FEF734FFD5
:1080F400022016E004200121FEF72EFF042010E0E8
:1081040008200121FEF728FF08200AE010200121A1
:10811400FEF722FF102004E020200121FEF71CFFBF
:1081240020200021FEF718FF09E04FF40050012140
:10813400FEF704FF4FF400500021FEF7FFFE03B0EA
:1081440000BDC046000C004000140040002C01405B
:108154004FF4165303604FF000038380C380038100
:108164004FF00C0343814FF0000383817047C046F6
:10817400B1F800C04B88028A43EA0C03B1F804C08A
:10818400C98822F4706243EA0C0312040B43120CF4
:108194009BB21343038270474FF000030380438074
:1081A4008380C3807047C04621B183899BB243F466
:1081B400005304E0838923F400531B041B0C8381C4
:1081C4007047C046CBB24FEA531C01F01F01012394
:1081D40082B013FA01F1BCF1010F019001D10C300E
:1081E40005E0BCF1020F01D1103000E0143012B1EF
:1081F40003680B4302E0036823EA0103036002B04F
:108204007047C04622B1838A9BB241EA030303E06C
:10821400838A9BB223EA010383827047038A23F093
:108224000F031B041B0C0382038A9BB20B430382C0
:108234007047C046838923F400631B041B0C8381AD
:1082440083899BB2194381817047C04621B18389D8
:108254009BB243F0020304E0838923F002031B046E
:108264001B0C83817047C046038A23F020031B0440
:108274001B0C0382038A9BB2194301827047C046D8
:1082840021B1038A9BB243F4804304E0038A23F4BC
:1082940080431B041B0C03827047C046C905C90DEB
:1082A400818070478088C005C00D704783899BB268
:1082B40043F0010383817047038BDBB20383038B99
:1082C4009BB243EA012303837047C046038B03F444
:1082D4007F430383038B9BB20B4303837047C046E6
:1082E40021B1838A9BB243F0200304E0838A23F004
:1082F40020031B041B0C83827047C04621B1838A70
:108304009BB243F0100304E0838A23F010031B04A0
:108314001B0C83827047C04621B1838A9BB243F011
:10832400080304E0838A23F008031B041B0C8382E4
:108334007047C046838A23F004031B041B0C83820A
:10834400838A9BB2194381827047C04621B1838AD4
:108354009BB243F0020304E0838A23F002031B046C
:108364001B0C83827047C046038819420CBF00204F
:10837400012070476FEA010189B201807047C0464D
:10838400CBB24FEA531C01F01F02012313FA02F28D
:10839400BCF1010F08BF838904D0BCF1020F0CBFEC
:1083A400038A838A9BB202EA030C0B0A01229A40D5
:1083B40003889BB21A420CBF00200120BCF1000FBD
:1083C4000CBF002000F001007047C046090A0123D9
:1083D4008B406FEA03039BB203807047038ACA8809
:1083E40023F440531B041B0C13430382828970B58E
:1083F4000B890E46898822F4B0520B43718922F00E
:108404000C020B431204120C9BB213438381838A24
:10841400B28923F440731B041B0C88B01343054634
:1084240083820190044603A8FEF702FD104B114815
:108434009D420CBF069B059B03EB8301336801EB54
:1084440081019B00B1FBF3F1A1FB002364224FEAFD
:10845400531C0CFB121212013232A2FB00235B09E3
:1084640003F00F0343EA0C139BB22B8108B070BDD9
:10847400003801401F85EB5100B5224B83B0984270
:1084840001902BD008D8A3F50063984216D003F5C9
:108494008063984234D119E01B4B984226D003F5EF
:1084A400684398422CD101214FF48040FEF746FDE9
:1084B4004FF480400021FEF741FD21E04FF40030ED
:1084C4000121FEF749FD4FF4003016E04FF48020FF
:1084D4000121FEF741FD4FF480200EE04FF400200F
:1084E4000121FEF739FD4FF4002006E04FF480101F
:1084F4000121FEF731FD4FF480100021FEF72CFD21
:1085040003B000BD004C00400050004030BF704735
:1085140020BF704740BF7047BFF36F8F7047BFF3F2
:108524004F8F7047BFF35F8F704701DF7047EFF3E2
:108534001480704780F31488BFF36F8F7047EFF394
:108544000980704780F309887047EFF3088070470B
:1085540080F30888704772B6704762B6704771B688
:10856400704761B6704780F311887047EFF312804B
:10857400704740BA704700BA704700002DF00701F9
:1085840068468D4601B500220C49DFF834C00D4819
:1085940002E083588B50043201EB02036345F8D3A5
:1085A400094B0A49002201E043F8042B8B42FBD318
:1085B400FAF7B8FEBDE80140854670470000002088
:1085C400F402002068880008F40200200814002047
:1085D40083238821A31FDD1D341C9B1A1C19B31788
:1085E4005F161E15EE13D012C111C410D10FEE0E7A
:1085F4001A0E4D0D8E0CD90B2F0B8F0AF709680933
:10860400E0086108E90777070C07A6064706ED05A9
:1086140097054705FB04B40470043004F403BB035A
:10862400860352032303F602CC02A3027E025A02FB
:1086340038021802FA01DE010000EE02C410D10F64
:10864400EE0E1A0E4D0D8E0CD90B2F0B8F0AF70957
:108654006809E0086108E90777070C07A6064706DA
:10866400ED0597054705FB04B40470048403D43076
:108674006A18080008010A010C010D010F0111011B
:10868400130114010000080010010F010D010B017A
:10869400090108010601040400000F0008010D018E
:1086A400110194018000110114041E010001140140
:1086B4000001940094001401000114011904000243
:1086C40000001700100180009000900010011001BC
:1086D4009700940097009400100400010000140017
:1086E4009000A8011E01E801AC00EC0000010000AC
:1086F40014000801240162041E041E02000100008B
:1087040010009700B200F2008000B200F2000001F5
:1087140000002000090121041E02000100001400D1
:108724001701B000610200010000100017012302CC
:1087340063022302630200010000140090006C0431
:108744001E04000014009A006104210400010000CA
:1087540010008100E1009A00E100A1000001000086
:1087640010001A016A010001000010009A00AA001A
:10877400EA000001000010009A00AA00EA0080004C
:10878400AA00EA000001000008009400A5001702F6
:108794001402A500170214020001000009000004DD
:1087A4000E02800082018201820100040000100098
:1087B4009C0052040001000004008100740434048D
:1087C400880448040001000001009A006A042A0495
:1087D400740434047E043E0488044804920452045D
:1087E4009C045C04A6046604B00470040001000048
:1087F40008008100680421040001000004009901BC
:108804008000990180009901800099018000000096
:1088140010001501720272027202000100000800C9
:108824009A008100E80022032102000100000700F1
:108834008100140180008100130180008100120175
:10884400800081001101800081001001800000007F
:1088540000000000010203040102030406070809E2
:0488640002040608FC
:1088680001000100010000FD01FE00FE00FF000301
:1088780000FF00030100009632FA32FA00FF0003FD
:108888000002007F007F00FF0100010001000100DD
:108898000001000700FF007F00FF007F01000100CA
:1088A80001000100010001000100010001000100B8
:1088B80001000100010001000100010001000100A8
:1088C8000100010001000100010001000100010098
:1088D8000100010001000100010001000100010088
:1088E8000100010001000100010001000100010078
:1088F8000100010001000100010001000100010068
:10890800010000FF00FF00FF00FF0100010001005F
:108918000100010002000101010102000200010141
:10892800010102000101010102000200010102002F
:10893800020001010101010101010200020002001F
:10894800020002000200010200020002000200020E
:1089580000020002000200020002000200020002FF
:10896800000200020001010200020001020000737F
:1089780013C801000000FF0300503CBEFF0302249F
:10898800240000000000000064000A0370300C009E
:1089980040420F0000E1000040420F0000010203C6
:1089A8000405060708090A0B0C0D0E0F1011121307
:1089B8001415161718191A1B1C1D1E1F20212223F7
:1089C8002425262728292A2A2B2C2D2E2F303132F0
:1089D800333435363738393A3B3C3D3E3F404142E7
:1089E800434445464748494A4B4C4D4E4F505152D7
:1089F800535455565758595A5B5C5D5E5F606162C7
:108A0800636465666768696A6B6C6D6E6F707172B6
:108A1800737475767778797A7B7C7D7E7F7F8081A9
:108A280082838485868788898A8B8C8D8E8F9091A6
:108A380092939495969798999A9B9C9D9E9FA0A196
:108A4800A2A3A4A5A6A7A8A9AAABACADAEAFB0B186
:108A5800B2B3B4B5B6B7B8B9BABBBCBDBEBFC0C176
:108A6800C2C3C4C5C6C7C8C9CACBCCCDCECFD0D166
:108A7800D2D3D3D4D5D6D7D8D9DADBDCDDDEDFE064
:108A8800E1E2E3E4E5E6E7E8E9EAEBECEDEEEFF056
:108A9800F1F2F3F4F5F6F7F8F9FAFBFC0A00000036
:108AA8000B0000000C0000000D000000000000009A
:108AB80001000000020000000300000004000000A4
:108AC8000500000006000000070000000E0000007E
